:100000000C948D0D0C94B50D0C94B50D0C94B50D90
:100010000C94B50D0C94B50D0C94B50D0C94B50D58
:100020000C94B50D0C94B50D0C94962A0C94052BDC
:100030000C94B50D0C94B50D0C94B50D0C94B50D38
:100040000C94B50D0C94B50D0C94B50D0C94B50D28
:100050000C94B50D0C94B50D0C94B50D0C94372D76
:100060000C94B50D0C94B50D0C94B50D0C94B50D08
:100070000C94B50D0C94B50D0C94B50D0C94B50DF8
:100080000C94812D0C94B50D0C94B50D0C94B50DFC
:100090000C94B50D0C94B50D0C94B50D0C94B50DD8
:1000A0000C94B50D0C94B50D0C94B50D11082030C1
:1000B0000000020B0F0600085A7EE7818118180025
:1000C00000020702000000004A7EE78181BD7E3CFD
:1000D0000203000020B0F060001042C389BD6642F8
:1000E0002400002070200000000042082C7EC34243
:1000F00000180808241C2C3018081010080C0736AB
:1001000018604000203060D8300C02001608000251
:1001100005020000000060909060003C428D8581E7
:1001200081423C0000205020000000000609090622
:10013000003C428D858181423C000F08E087F3F945
:10014000890103FEFFFFFFFF7CC281E087F7F38395
:100150000307FEFFFFFFFF7CC683C88FC7E7870743
:100160000FFEFFFFFFFF7CCE87989F1F1F1F1F3FC3
:10017000FEFFFFFFFF7C9E8F382000000080C0C084
:10018000E0F0589CBC7E6E4E2E6EDAB28DDC9898F4
:1001900058D8D8D89890B0608000000000000000C7
:1001A000000000000000000000000000000000004F
:1001B0000000007CFFF1E71F3FC7000303010101BE
:1001C0000103030303030301010079FBF7EFDDB330
:1001D00002040888808080C0C0A0B0101010000009
:1001E0000000000000000000000080E0F07D0378C7
:1001F000FEF9E0D4F4AC2C6CDC3CFC9C8C8CCC7C0C
:100200003C80F870656B57D7D7D7C7E6E2F1F1FBB2
:10021000FBFBF3F3F3F6E4D8C0E0E0C0C00000005D
:10022000000003070F88D3D6CEDDBDBFBFBFBBFA2A
:10023000D8DCCDCDD5D5D8DCDCEEEEEFE7C383221C
:100240007275E3F7FFFFFFFFFF7F7F3FBF9B0B89C7
:1002500089C5C16161333018180C00000080C0C02E
:10026000E0F05898BCBCBEAEAE1E768EDADC9C9830
:1002700018B8B0B090888C8C0830000000000000E6
:10028000000000000000000000000000000000006E
:10029000000000387FF9F72F5F8F00030301010191
:1002A00001030303030303010100397BF347E7CF95
:1002B000CDD1818182808080A0A0606070686070F4
:1002C000F0E00000000000000000000000F833C073
:1002D000FCE3D4F4ECEC6C2C2C5C3C9C8C8CCC7C47
:1002E0003C80FCFAF4F3F6E5EBEBF77737F7F7F33E
:1002F000F3F1E1E1E0C0C080000100000080E00017
:10030000000000000E9FD8C5CBDBD7B7B7B7B7B694
:10031000BABAB9BDDDDECECEC4E9E9EDEDCD8E0EC3
:100320000646667378FFFFFFFFFF7F7FBFBF3FAFCB
:100330009FDFDF6F6F373318180C00000080C0C0DC
:10034000E0F058BCBC7E6E4E2EAEDEB68EDC9C9CC1
:10035000383060C080000000800000008000000095
:10036000000000000000000000000000000000008D
:1003700000000078FFFDFB772F1F00030301010140
:100380000103030303030301010079FAF4C52DED12
:10039000ECCECEC5C0C0C0C0C0C0C0C080A03018A8
:1003A00018080800000000000000000060F9F3E0F9
:1003B000068D78F4EC6C5C5C5C3CFC9C8C8CCC7C9E
:1003C0003C80FBF6F5F3FBF6F5F5F7FBFBFBFBFBDF
:1003D000FBFBF9F1F0E0E0C080000000000000004D
:1003E000000000000080CFDFD8D7CFDF9F9EACACED
:1003F000B4B1B9B9B9BDDCDCDEDEEEECE5C1891B18
:10040000373717213F1F070F1F3F3F3FBF9F1F9FDA
:100410008FC7C66C6C343018180C00000080C0C048
:10042000F0F81CBC7E6ECEAE6EEEEAD9D5CC9C98B0
:100430001838B0B02040800000000000000000002C
:1004400000000000000000000000000000000000AC
:10045000000000FCFFF9F72F1FCF0003030100008D
:1004600000020303030303010100F9FBF3E6CC9B45
:1004700048C8E8E0E0E0C0D0B030202000000080B4
:100480008040000000000000000000F0F9FD338013
:100490003EF9F8F4ECEC5CBC7CFCFC9C8C8CCC7CD9
:1004A0003C80F0F5EBEBEFE7F7F6F2F3F9F9FBFB45
:1004B000FBFBFBFBF3F3E1E1C0C0800000000000A8
:1004C00000000000018FDCDBD7EEDFDFDEDCDCECE0
:1004D000CDCCD5D5D9D9DCECEEEEE6E6E6C6854B3B
:1004E000978FFFFFFFFF7F7F3F1F0F1F9B9B339364
:1004F0008FCFC7676E343018180C30180000DFEF4C
:10050000F3F5F6EFCF87DBEDF7F7F7F7F7EFDFDD82
:1005100083BF3F077BFF7F7FBC80C0C060603030FF
:10052000CCFCFE7F7F3F3F1E01010000C0FCFBF7BB
:10053000EFEF0F2FF7FB7B77AFAFCFCF6F6737337F
:100540001B1B0C0C06060B7BFDFD8EF4F8FCFEFE5F
:100550003E0E000000000000000000000303030343
:100560000300000002020303010100000000020278
:10057000030302000000000003030303030303015D
:100580000000000000000000000000001910C0F092
:10059000F8FCFEFEFFFFFFC70100000000000000A6
:1005A0000000008080C060039FFFFFFFFFFFFFFF90
:1005B000FF8F80E0F0F8FC7E7E3F3F1F0F070100B9
:1005C0001F180000000000000000C0F0380C0404F8
:1005D0000404040404040405078383C140400000AC
:1005E0000000000000000000808FDFC0606030303D
:1005F00018080C0406020301010080C0E0E060203E
:10060000180C0C06060303010100060E18302060CA
:10061000404040602030180C060100010000003C02
:1006200038000000000080F8FE0FE3FB1B0B0B8B73
:10063000FBF3F7F6F6F60606ECECECECECECECEC87
:10064000ECECECECECECEEE6F6F6F6F7F3FBFBCBC1
:10065000CBFBE30FFEF8801E332121339E00000008
:1006600080F8FF0FE0F8F9F9F9F9F9F9F9F1F3F386
:10067000F3F3F0F0FFFFFFFFFFFFFFFFFFFFFFFFC0
:10068000FFFFFFFFFFFFFFFFFFFFFFFFFF7F7FFE7B
:10069000E00FFFF880060600000000000F3FF0C6E4
:1006A000070404070707070707070707070707FFE8
:1006B000FFFFFFFFFFFFFFFFFFFFFFFFFFFFFF0742
:1006C00007070707078787070726860707C6F03F3C
:1006D0001F00808000000000000000030784C4E4C5
:1006E000E4E4E4E4E4E4E4C49C000FE7E7E7E7E7DC
:1006F000E7E7E7E7E7C7870F1F0FC7E7E0ECE4E4AA
:10070000E4E5E5E4C4040404070300C040C30311A6
:10071000000000000000000000FFFFFFFFFF39396C
:1007200039FFFFFF0FE0E0EFEF0FFFFF183879FF11
:10073000FFF703E0E0EFEF0FFFF9F0F0FCFDFDFD48
:100740000DECE0E0E000000121010000000000806D
:10075000C0602060C080000000000C0C007EFE80A5
:100760003C3E1C1C1C1C1C0C0C0E0C0C0C0C0E1E01
:100770001C1C1C1C3C3E80FE7E00000000C0E0E013
:10078000C000000000030300000E1B3166C680D0CD
:1007900060311B0E00003828380001471E38202029
:1007A0002020301010D0D0101090103020202020A9
:1007B000381E0701000006060000010100000000CD
:1007C00000000000003818008080800000111F1118
:1007D000801F91110E801F959591801F89899F80A0
:1007E00080008484840080001F09891F001F09097C
:1007F000178081819F01800A0080008080808007AF
:100800000C080B03000408080F000F08080F000B6A
:100810000A0A0E0000000F000000080F08000F0178
:1008200002040F0008080808000F08080800030267
:100830000E03000F04040BF888888800F88888F8F5
:1008400000F888887000F8A8A88800500000000010
:10085000000070C888B83000408080F800F88888B0
:10086000F80088A8A8F800F84848B80088F8883E3A
:10087000101C3E6743C3C38386870000000010F04E
:10088000F0100010F0F010101030F0E00011F3F74D
:100890001716141010300010F0F030E08000000047
:1008A00000F0F00010F0F01010101010101030F8E0
:1008B000E060C0C0C0C0C1E37F7E3C0080FFFF801D
:1008C0000080FFFF00043C76C7830082FFFF828226
:1008D000828080C00080FFFF000001070C3860FFAD
:1008E000FF0082FFFF82828280808080E01008000B
:1008F000080808080808083E6B49492A2A08001415
:10090000087F417777417F4155555D7F415F5F7F2C
:10091000417575717F7F417575717F415F5F7F4163
:100920007575417F717747717F7F5D415D7F417B49
:1009300077417F4175757D7F415D5D417F7F415D81
:100940005D5D7F415D5D417F417B77417F41757595
:100950007F7F515555457F4175757D7F4977774933
:100960007F000000007F415D5D417F4175757D7FA7
:100970004175757D7F000000007F415D5D417F41D5
:100980007B77417F000000000000000000080800A5
:100990000F060F060F000F000F000F000F000F00D3
:1009A0000F060F060F060F000F000F000F000F00BD
:1009B0000F060F060F060F060F000F000F000F00A7
:1009C0000F060F060F060F060F060F000F000F0091
:1009D0000F060F060F060F060F060F060F000F0477
:1009E000080C1E1E0C000C0C00000400000000008F
:1009F00000000000000000000000000000000000F7
:100A000000101040E868FCE8FCD8FCF0FCBCFE5E7E
:100A1000FFEEFF8EFFF6FFFAFF8AFF26FF66FFE07C
:100A2000F640E000000004042F257F357F46FFC21A
:100A3000F7F2FFEFFFECFF72FF0C7F0C1E000E04BD
:100A40000F040E007070F8C0F0E0F0F0FCBCFE5E29
:100A5000FFEEFF8EFFF6FFFAFF8AFF66FFC3E7C0D7
:100A6000E360F000000004044F45EF65FF87EF826C
:100A7000F7F2FFEFFFECFF72FF0C7F0C1E000D047E
:100A80000F040E006060F0C0E0C0F0F0FCBCFE5E41
:100A9000FFEEFF8EFFF6FFFAFF8AFF44EE86CF805F
:100AA000C6C0E00000008080C9C9FFC9FF8DDF8695
:100AB000FFF2FFEFFFECFF72FF0C7F0C1F010F092D
:100AC0001F000900E0C0E0C0E0E0F0F0FEDEFF2F14
:100AD000FF77FFC7FF7BFF7DFF45FFA2FFCCFE80B6
:100AE000CC00800000004141E3C1EBC9FF4CFF4650
:100AF000FF7BFF77FF76FF397F063F060F010F0868
:100B00001D000840E0C0E060F0E0F0F0FEDEFF2FE6
:100B1000FF77FFC7FF7BFF7DFF45FF22FFCCFE80F5
:100B2000CC0080000000C141E361FB68FD4CFF4642
:100B3000FF7BFF77FF76FF397F063F060F000F0828
:100B40001D000860F0B0F8D0F8D0F8F0FEDEFF2FFE
:100B5000FF77FFC7FF7BFF7DFF45FF22FFE6FFC05A
:100B6000E600C0000101030127247F74FF46FF4314
:100B7000FF79FF77FF76FF397F063F060F000704F6
:100B80000F000408080000001818000000000024EE
:100B9000000024000081667E3C3C7E66818100006E
:100BA000000000008143189B17F217B817F2172DA9
:100BB000189B1793179B1789175F1743189B179359
:100BC000179B17891734172D189B1793179B178995
:100BD000175F17B8155A18B617B5162616B4175D4D
:100BE000161716B4170716F815E815BE15F815BB35
:100BF00015000104070C101416171613100B070329
:100C0000010B070301000104070C1014161716133B
:100C10001058146A1539141B1439146A158D15F0FF
:100C20001306087EFF8181FF7E0082FFFF8000C2E5
:100C3000E3B1998F8642C38989FF76181C10FFFFA4
:100C4000104FCF8989F9717EFF8989F9700303F10B
:100C5000F90F0776FF8989FF7646CF8989FF7E1FC6
:100C60000866EF89FB72000101FFFF010100F8FE39
:100C700013FEF8007EFF81897BFA00FFFF898981DE
:100C8000082001FFF5FF05FFF4FFF5FF05FFF5FF65
:100C9000F5FF00FFDFFF00FFDFFFDFFF00FFDFFFEB
:100CA000DFFF00FF7FFF00FFFFFF7FFF00FF5FFF11
:100CB000ABFF000F050F001F0A1F050F0007010300
:100CC00000010818F1FF05FFF5FFE5FF45FFA1FF53
:100CD00004FFA1FFDFFF00FFDFFFDFFF55FF8AFFFB
:100CE00000FF8AFF153F003F153F0A1F050F02074F
:100CF000000300010F080103070F1F3F7FFFFEFCE9
:100D0000F8F0E0C0800102070A1F2A5FAA5EA85817
:100D1000A04080000102040A012A04AA00A800A041
:100D2000008000030800FF0EFF00FF080808286885
:100D30006B6B682808200800606060606060B0B07D
:100D4000B0B0B0B0D8D8DBDBD8D8E8ECECECECEC49
:100D5000F6F6F6F6F60600201000003FFF7FFFFFD4
:100D6000FFFFFFFF7CFE1BA1019919C37C7CFFFFE5
:100D7000FFFFFF0F1F3F03040000000000000003FF
:100D8000070F1103060E03776F5F1F030602070F9D
:100D90001F1F3F2000000000000078FF3FFFFFFF03
:100DA000FFFFFF7FFC1EA3019919C1737CFCFFFFAD
:100DB000FFFF3F0F3F030700000000000000030794
:100DC0000F1807060E03076F5F5F030602070F1F6A
:100DD0001F3F2000000000000000E0FF7FFFFFFF3A
:100DE000FFFFFFFF7CFE2B81119909E37C7CFFFF55
:100DF000FFFF1F3F070F0100000000010001070F68
:100E00001F01070F06020F5F5F470307020E1F1F38
:100E10003F010000000000000000007FFF7FFFFF97
:100E2000FFFFFFFF7CFE1BA1019919C37C7CFFFF24
:100E3000FFFFFF1F7F070F000000000000000307F7
:100E40000F1F03070E1E074F5F5F070306020F1FEA
:100E50003F0F030000000000003020F0F000808011
:100E60008000000000000000000000000000000002
:100E70000000000000000000000000000000000270
:100E8000DEC2C2DEC2C2DEC2C2DEC2073FF8C53D5C
:100E90007DFBFBFBF6F6F6ECCCBC7CE0C0C68682A4
:100EA00080AFAFAFA9A6868686828680C0F03C0F51
:100EB000F3FC0642FA4246FEFEFE010000010F7EF0
:100EC000F08E7D7BFBF7F7EFEFEFDF06669595651C
:100ED000DD0565959565DD0565959565DDDCDF00CE
:100EE000DFDFD8D8DFD8D8DFDF0000000000000047
:100EF00001070E19362E5D5DBBBBFB767676F6EEEE
:100F0000EFEEEEAE8E0E0F2E2EAEEEEEEFF7F7F604
:100F1000767A3A1A0C647078000000100801010219
:100F20000206040C0C1818183070F0F000060800C7
:100F3000282A4A890800282AC9080000282A4A893C
:100F40000800282AC908001020000004F88CB6B751
:100F5000C5FD3C0CBEB6F2A22030307C0F8381A1CF
:100F6000B1F0B4FE7E6F4D05000000021A3B3BBF9E
:100F7000BBFFDFFB5B000000000000000008B87C46
:100F8000E6D65DC9E37F2D08002010C0E0E0E060F8
:100F900060B0D010D0F0F0F8FCFEFEFFFFF1F0E002
:100FA000E0C08080C00080C0E07010000103132703
:100FB0003226322733A7BF3F271F3F7FFFE79F1F00
:100FC0000F0F070F1B07070F1D200000C0E0E0E018
:100FD0006060B0D010D0F0F8FCFEFFFFF1F0E0E070
:100FE000C08080C000C0E0F03800000000010313A2
:100FF000273226322733A7BF3F271F3F7FFFC71F58
:101000000F070F1B07070F1E100000C0E0E0E06095
:1010100060B0D010D0F0F0F8FCFEFEFFFFF1F0E081
:10102000E0C08080C00080C0E07010000103132782
:101030003226322733A7BF3F271F3F7FFFE79F1F7F
:101040000F0F070F1B07070F1D2000C0E0E06060B7
:10105000B0D010D0F0F0F0F8FCFEFFFFF1F0E0E0CF
:10106000C08080C0008080C0602000000103173273
:1010700026322733A7BF3F271F3F7FFFE79F1F0F62
:101080000F070F13070F1F3B4000001070E0C080D8
:1010900000C08080C0E0E0F0F1FFFFFEFEFCF8F051
:1010A000F0D010D0B06060E0E0E0C000201D0F077D
:1010B000071B0F070F0F1F9FE7FF7F3F1F273FBF34
:1010C000A733273226322713030100000038F0E04F
:1010D000C000C08080C0E0E0F0F1FFFFFEFCF8F04F
:1010E000D010D0B06060E0E0E0C0000000101E0F43
:1010F00007071B0F070F1FC7FF7F3F1F273FBFA714
:1011000033273226322713030100001070E0C0801D
:1011100000C08080C0E0E0F0F1FFFFFEFEFCF8F0D0
:10112000F0D010D0B06060E0E0E0C000201D0F07FC
:10113000071B0F070F0F1F9FE7FF7F3F1F273FBFB3
:10114000A733273226322713030100002060C08016
:101150008000C08080C0E0E0F0F1FFFFFEFCF8F00E
:10116000F0F0D010D0B06060E0E0C00000403B1F65
:101170000F07130F070F0F1F9FE7FF7F3F1F273F2B
:10118000BFA7332732263217030100080800066480
:10119000F79DAF6701100872277F33731B1F1F0F66
:1011A0001E1E1A5212000072277F33735B5F0F0EF0
:1011B0000E1A1A1A10120072277F33731B4F4E4EED
:1011C0004A020A0818181272277F33731B1F1F1E4A
:1011D0001E5A501000000810100000003838FCF8AB
:1011E000FCFCFEF6FFCBFFB5FFB5FFCBFFFFFFBF5B
:1011F000FF1FBF0E1F000E00000002020F0C5F5FFA
:10120000FFA1FF1FBF317F6DFF03FF9FFF30FF6D09
:10121000FF43FF9EFF009E0000008080F838FCF82E
:10122000FCFCFEF6FFCBFFB5FFB5FFCBFFFFFFBF1A
:10123000FF9FFF8EDF008E00000D1F023F3B7F41AE
:10124000FF1F7F337F257F017F4FFF197F327F2470
:101250007F247F093F337F063F000000F838FCF809
:10126000FCFCFEF6FFCBFFB5FFB5FFCBFFFFFFBFDA
:10127000FF1FBF0E1F000E0000041F13BF8CFF27AF
:10128000FF317F1F3F017F41FF9FFF33FF247F29F5
:101290007F113F123F227702670000003838FCF8C8
:1012A000FCFCFEF6FFCBFFB5FFB5FFCBFFFFFFBF9A
:1012B000FF1FBF0E1F000E0000000C0C3E30FF9FF2
:1012C000FF019F1F7F71FF09FF87FF3FFF60FF4DF9
:1012D000FF53FF227F0C3E000C1010000000F0F0C6
:1012E000FC0CFE42FFEDFFE5FFE1F7E1F3E1F3E186
:1012F000F342FF0CFEF0FC00F000000000000000D4
:10130000010103013F3F7F00FFFFFF1FFF003F3F41
:101310007F013F0103000100000000007878FC8499
:10132000FE82FFAEFFE5FF71FFF1FBF1FB71FBE118
:10133000F3A2F782E784FE78FC007800000000004A
:101340001D1C3F021F0103007F7FFF0F7F000F0165
:1013500003021F1C3F001D00000000387C44FE42B9
:10136000FF6EFF65FFF1FF31FBF1FBF1FB31FBF19C
:10137000FB61F362F742FF44FE387C000000060682
:101380000F010701030001003F3F7F073F000700F7
:101390000101030107060F0006000038FC44FE426D
:1013A000FF6EFF75FFF1FF31FBF1FBF1FB31FBF14C
:1013B000FB71FB62F742F744FE38FC0001010301B8
:1013C00003010301030001001F1F3F031F0003006F
:1013D0000101030103010301030001007070FC8C93
:1013E000FE82FFADFFE5FF71FFF1FBF1FB71FBE159
:1013F000F3A3F782FF8CFE70FC0070000000080869
:101400001D081D040F0307007F7FFF0F7F000F03E0
:1014100007040F081D081D00080000101000808040
:10142000C0C0E060F0B0F8D8FC18FEFAFFFBFF7B0C
:10143000FFB7FF60FFC0E080C0C0F0F0F80C1F0DE8
:101440001F1B3F173F1A3F167F5FFF4FFFD1FFDB88
:10145000FF8BDF048F03070307070F0C1F0080803B
:10146000C040E0A0F0D0F818FCF8FEFAFF7BFFF7D0
:10147000FFE1F7C0E100C080C0C0E000E00C1F0B3E
:101480001F173F1A3F163F1F7F4FFFD1FFD7FF8621
:10149000DF01870307071F1F3F397F007900808026
:1014A000C0C0E060F0B0F8D8FC18FEFAFFFBFF7B8C
:1014B000FFB7FF60FFC0E080C0C0F0F0F80C1F0D68
:1014C0001F1B3F173F1A3F167F5FFF4FFFD1FFDB08
:1014D000FF8BDF048F03070307070F0C1F000000BB
:1014E0008080C0C0E060F0B0F8D8FE1AFFFBFFFBC0
:1014F000FFBBFFD0FF20F0C0E0E0F878FC000E0C4E
:101500001F0D1F1B3F173F1A3F167F5FFF4FFF51F5
:10151000FF5DFF6DFF06EF03070307060F100800CE
:101520007050F8B8FCECFED6FFDAFFE2FF7EFF9EBB
:10153000FF7DFFBBFF91FB38FD6CFE00EE0000005D
:101540007030F8E8FCD4FEDAFFE2FF7EFF9EFF7DFC
:10155000FFBBFF91FB70F9D8FC00DC00000000002D
:101560007050F8B8FCECFED6FFDAFFE2FF7EFF9E7B
:10157000FF7DFFBBFF91FB38FD6CFE00EE0000001D
:101580007050F8D8FCBCFEECFED6FFDAFFE2FF7E1E
:10159000FF9DFF7BFFB0FB18FE367F007700001039
:1015A000100000000080E0F0F0F0E0E080000000BB
:1015B000000000000003070F0F0F070703000000E3
:1015C0000000000000000080C0C08000000000009B
:1015D0000000000000000001030301000000000003
:1015E00000000000B0F8FCFCF8F0F8F8F8F080001B
:1015F000000000070F0F1F3F3F3F3F1F070703007B
:10160000000000B8FCFEFEFE7C38FCFCFCF8C0804C
:101610000000070F0F3F7F7E787C7E3F0F0F0F0784
:1016200000008E9F9F7F6E081C1C081C5E1E8C8015
:1016300000070F0F0F070064F0F0F06C0C070F0F9E
:10164000070003030020000004000000000606005D
:10165000000606000000000000C0C00008000003F3
:10166000030808B47E7EF7EF7E7E2D187E76F3CFDA
:101670006E7E183C76F3C9C7E6FE7C46DDBE3E3E74
:101680001D018208080C1E1E3F3E7F7CFE3E7F1E11
:101690003F0C1E000C1F3F217F41FF81FFBDFF5DFE
:1016A000FF217F1F3F80CE4EFF327F317F49FF44B5
:1016B000FF60FC187C3C7E42FF8DDF8DDF81CF8197
:1016C000C342FF3C7E80F0D0FCD4FF5BFF2AFF28A2
:1016D000FEE0F880E070F8F8FCE4FFF3FFF8FFFCB0
:1016E000FE70FE007004EE6CFE3C7F1F3F1F3F3C0F
:1016F0007F6CFE04EE03083E223E223E20322A2466
:10170000222A140E083C2E2A1A3C2A3A023A063E95
:101710002A3E2E2A1E081C08080806091122110953
:101720000600060F1F3E1F0F0600591D591D2B1DD9
:10173000D31D061DA91CA91CA61D591D2B1D591D15
:10174000C11D2B1D061DE01CA61DE01C591DA91C5A
:10175000DC1D591DA91C321C95151F15591D591D3D
:101760002B1DB81D2B1D061D591DA61D2B1D2B1D28
:10177000061DD31D061DE01C321CA61D321CA91C13
:10178000711CDC1DA91C711C321C95151F15821BB8
:10179000BE1BFB1BD31D711CA91C381BA61D381BAF
:1017A000A91C711CDC1DFB1BBE1B821BA61DBE1BC6
:1017B000711CA91CC11DA91C381BBC1823151F15A1
:1017C000F91A591DF91ADC1D591DB71A2B1DA61D32
:1017D000B71A591DF91AAF1D591DB71A321CA61D8B
:1017E000381B821BB71ACA1D321CF91A591D9515D0
:1017F0001F15521A521A8E1AB81DB71A711CA91C3D
:10180000A61D711C821B521AD31D8E1AB71AB71A45
:10181000A61DBE1BFB1B711CDC1D521A8E1AB71AAB
:1018200095151F15591D2B1D061DDC1DE01CA91C3F
:10183000711CA61D321CFB1BBE1BC11D821B381B4D
:10184000F91AA61DB71A8E1A521ACA1D8E1AB71A7D
:10185000A21823151F15F91AB71AF91ADC1D821BD5
:10186000241AB71AA61DF91A821B381BAF1D381B84
:10187000321C241AA61D381B821BB71AD31D321C1A
:10188000F91A591D95151F15321C8E1AE919B81D24
:10189000241A061D591DA61DB71AF91A061DDC1DAE
:1018A000241AE919241AA61D321CA91C821BAF1D7B
:1018B000BE1B711C321C95151F15241AE919A0199D
:1018C000CA1DE01CA91C711CA61D321CFB1B241A7E
:1018D000DC1DE919A019F91AA61D8E1A521A241A2C
:1018E000DC1DE919A0198818231515152208FFFF1A
:1018F00011111F0E00F8FE1313FEF8007FFF808009
:10190000FF7F0066EF8989FB7200FFFF898989816B
:101910001C087EFF8181FF7E00030F3CF03C0F031B
:1019200000FFFF8989818100FFFF1111FFF61C086C
:101930007EFF81897BFA00F8FE1313FEF800FFFF9B
:101940001C701CFFFF00FFFF89898981581439141E
:101950001B1439146A15D5136A15CA132E08010110
:10196000FFFF010100FFFF0808FFFF00FFFF89895B
:101970008181000000000000FFFF8989818100FF54
:10198000FF1E78FFFF00FFFF8181FF7E3A08FFFF07
:101990000808FFFF00FFFF007EFF81897BFA00FF40
:1019A000FF0808FFFF0066EF8989FB72007EFF8158
:1019B00081C342007EFF8181FF7E00FFFF1111FF86
:1019C000EE00FFFF8989818158146A156A15CA13D0
:1019D000D5F08D14A1C881CFD9F1AF2000F0F89CCB
:1019E0008E8783878E9CF8F00000FEFF03030303BD
:1019F00003070EFCF80000FEFF0303030303070EBA
:101A0000FCF80000FFFF00000000000000FFFF00E6
:101A100000FEFF8383838383C7EE7C380000F8FCDD
:101A20000E07030303070EFCF800003F7FE0C080B1
:101A300080C0E07F3FFFFF01010101010101FFFFC5
:101A40000000FFFF0C0C0C0C1C3E77E3C100007F74
:101A5000FFC0C0C0C0C0E0703F1F00001F3F70E06B
:101A6000C0C0C0E0703F1F00007FFFC1C1C1C1C145
:101A7000E3773E1C00001F3F70E0C0C0C0E0703F35
:101A80001F000000000001FFFF01000000CF1F4CFD
:101A900020C61F6814AB1F9620771FEE21DE13BDF2
:101AA000219421080B000202020000090400000139
:101AB0000202000005240010010524010101042494
:101AC00002060524060001070581031000400904F1
:101AD0000100020A0000000705020240000007059D
:101AE00083024000000403090412010002EF020116
:101AF000404123368000010102030141726475698F
:101B00006E6F204C4C430041726475696E6F204CBF
:101B1000656F6E6172646F00152E11241FBECFEFCA
:101B2000DAE0DEBFCDBF11E0A0E0B1E0E2E2F3E633
:101B300002C005900D92AE3BB107D9F727E0AEEB9E
:101B4000B1E001C01D92A73CB207E1F71DE0CDE86E
:101B5000DDE004C02197FE010E948931CC38D10715
:101B6000C9F70E94472E0C948F310C94000080918D
:101B70004E0208959091BB06ECEBF6E040E051E098
:101B800067E0268125FD25C020813181203831057F
:101B900004F5718571111DC05187699FD001112411
:101BA000AD57B94F15965C9315972E5F3F4F119621
:101BB0003C932E932281338113963C932E9312975C
:101BC000283131056CF416961C929F5F983008F00E
:101BD00090E04F5F3A968413D4CF9093BB0608955C
:101BE00016965C93F2CFE3E8F2E0A0E0B8E0008064
:101BF0000EBC8111012C1197A0FDFDCF0192B9F708
:101C00000DB40895ECEBF6E020E0968195FD15C04B
:101C10009F70692F6550770B6230710530F44281F7
:101C200053814250510953834283973030F04281AF
:101C3000538141505109538342832F5F3A96821357
:101C4000E4CF0895FC0180918202882311F13FB70F
:101C5000F89482E08093E9002091F200822F90E0D6
:101C60001816190614F481E090E0882339F02898BA
:101C700044E6409381024091F1004083222339F0F1
:101C80002091F200211103C02BE62093E8003FBF12
:101C900008958FEF9FEF08952FB7F89483E0809316
:101CA000E9009091E800892F807295FF04C090911F
:101CB000F20080E4891B2FBF089580917902811181
:101CC0000DC082E08093750284E0809376021092CA
:101CD00078021092770281E08093790285E792E0A2
:101CE0000895CF93DF931F92CDB7DEB76983DC01F0
:101CF000ED91FC910280F381E02D41E050E0BE01C6
:101D00006F5F7F4F09950F90DF91CF91089583E02A
:101D10008093E9008091F200882319F08AE3809390
:101D2000E80008950E944C0E90E00895CF93DF9351
:101D30001F92CDB7DEB7FC018485958597FD08C05D
:101D40002FEF3FEF358724870F90DF91CF910895D4
:101D5000CE0101960E94220E019719F4898190E02C
:101D6000F3CF8FEF9FEFF0CF0F931F93CF93DF93BE
:101D70001F92CDB7DEB78C01FC018485958597FF56
:101D80000BC0CE0101960E94220E019771F4898149
:101D900090E0F80195878487F801848595850F90F8
:101DA000DF91CF911F910F9108958FEF9FEFF1CFAA
:101DB000FC018485958597FD0BC09FB7F89482E060
:101DC0008093E9008091F2009FBF90E00196089512
:101DD0009FB7F89482E08093E9008091F2009FBF62
:101DE00090E0089540916F025091700220916D0231
:101DF00030916E0242175307B4F49091E800957049
:101E0000E1F39091E80092FD19C08093F100809178
:101E10006F029091700201968F739927892B19F4A4
:101E20008EEF8093E80080916F029091700201968E
:101E30009093700280936F0281E0089580E008958E
:101E4000DF92EF92FF920F931F93CF93DF93D82EE1
:101E50008A01EB017B01E40EF51ECE15DF0559F07A
:101E6000D7FE12C0FE0184910E94F20E21968111CC
:101E7000F4CF0FEF1FEFC801DF91CF911F910F91AA
:101E8000FF90EF90DF9008958881EECF0F931F931E
:101E9000CF93DF931F92CDB7DEB782E0898342E410
:101EA00050E063EA7AE180E80E94200F0E945D0E14
:101EB000DC0112960D911C910115110589F0D801D4
:101EC000ED91FC910280F381E02DBE016F5F7F4FA9
:101ED000C801099597FD04C0F80100851185ECCF74
:101EE00089810F90DF91CF911F910F9108956150DB
:101EF00030F02091F100FC0120830196F8CF289862
:101F000084E68093810208953FB7F8948091690236
:101F100090916A02A0916B02B0916C0226B5A89BC9
:101F200005C02F3F19F00196A11DB11D3FBFBA2F6B
:101F3000A92F982F8827BC01CD01620F711D811D2B
:101F4000911D42E0660F771F881F991F4A95D1F7B0
:101F500008958F929F92AF92BF92CF92DF92EF92AD
:101F6000FF926B017C010E94840F4B015C01C11444
:101F7000D104E104F104B9F00E94840F68197909D1
:101F80008A099B09683E73408105910580F321E031
:101F9000C21AD108E108F10888EE880E83E0981E85
:101FA000A11CB11CE4CFFF90EF90DF90CF90BF90C9
:101FB000AF909F908F9008958F929F92AF92BF9213
:101FC000CF92DF92EF92FF920F931F93CF93DF9305
:101FD0006C017B018A0180911101882309F45CC0A6
:101FE00080918202882309F457C08091740280FF97
:101FF00005C08091E00082608093E000E801B12C90
:102000008AEFA82E93E0892E2AE3922E209711F4CE
:10201000BB20D9F10E944C0E81110AC0AA94AA20BB
:10202000D9F161E070E080E090E00E94A90FEECF6E
:102030008C171D0611F00CF08C2F9FB7F89480922E
:10204000E9002091E80025FD02C09FBFDFCF282FC7
:1020500030E0C21BD30BF701815020F04191409337
:10206000F100FACFE20EF31EBB2021F09092E800BF
:10207000B12CEBCF8091E80085FDE7CF9092E8008E
:10208000BB24B394209709F3F3CF5D9884E6809343
:102090007302101611063CF081E090E0F601938384
:1020A000828310E000E0C801DF91CF911F910F9172
:1020B000FF90EF90DF90CF90BF90AF909F908F9068
:1020C000089520915602E0915402F0915502CF01FB
:1020D00002969093550280935402222319F0859121
:1020E00094910895808191810895CF92DF92EF922B
:1020F000FF92CF93DF930E946110811520E8920731
:1021000091F4809171008D7F809371001092910005
:102110004698479810925302DF91CF91FF90EF902D
:10212000DF90CF90089521E020935302813020E882
:10213000920751F48091510290915202909355026E
:10214000809354020E94611097FD05C020915002B7
:10215000222309F454C020914F02211150C021E0E4
:1021600020935702EC01DF77209709F04BC081E004
:102170008093580246983FE9C32E3FE0D32EE12CCE
:10218000F12CCAEFD0E0E0917407F0917507099542
:10219000811103C081E08093580280915702882307
:1021A00029F080915802882309F43FC047980E9483
:1021B00061100097F1F19C01DE010E944631DC01C3
:1021C000CB0129E0B595A795979587952A95D1F7E5
:1021D000109290002AE020939100D0929900C09232
:1021E00098008093590290935A02A0935B02B09397
:1021F0005C02809171008260809371008DCF10929B
:102200005702B0CF9E0150E040E060E472E48FE0FE
:1022100090E00E94053169017A0181E0C81AD10875
:10222000E108F10810925802AECF4699BFCF479A05
:10223000BECF8FEF9FEFDC01CBCF9C01E1E7F0E059
:1022400090819D7F908310925602E6E6F7E0F0932E
:102250005502E0935402F0935202E093510231830D
:1022600020837383628380E090E8958384830C9459
:1022700075104F925F926F927F928F929F92AF9262
:10228000BF92CF92DF92EF92FF920F931F93CF9363
:10229000DF934C015901FC2DC02FD0E0CE01880DF9
:1022A000991D181619060CF06CC020E882169104CE
:1022B0000CF067C09B012E0D311D121613060CF099
:1022C00060C0603471050CF05CC04115510509F423
:1022D00058C0E62FE770FE2EDB0177FD179633E03E
:1022E000B595A7953A95E1F73A2F77FF04C0FF20FF
:1022F00011F03FEF3A0F662777276819790997FCA5
:1023000002C070E060E0803891050CF44BC090E8AA
:102310009819961BA32F032E000CBB0B1A2F109598
:102320003F3F0CF010E021E08E2D877009F420E093
:10233000E694E694E694E20EAE0DB11D19971CF0FA
:1023400028E0E22EE31AE11A310F20E83203D0012F
:102350001124A80DB91DA60FB71F019F600D711D97
:102360001124460F571F0F2D0F2C000C110BF330AB
:1023700009F41CC1C8F4F13009F4D0C0F23009F4FA
:102380007CC0DF91CF911F910F91FF90EF90DF9074
:10239000CF90BF90AF909F908F907F906F905F9005
:1023A0004F900895902FB5CFFA3FB1F1232F2E0D06
:1023B000FB3F39F7321729F3BD016D577D4FD12C03
:1023C000C12CC91608F0A4C0FA01EC0DFD1DE49162
:1023D000F0E04F01002E02C0880C991C0A94E2F72D
:1023E00037FD06C0FB018081E82CE0948E218083BC
:1023F000FF2061F0373054F45B01F0E8AF0EB11C00
:10240000E92CE094F50180818E218083FFEFCF1AC3
:10241000DF0A6F5F7F4FD5CF232F2E0D321709F4C0
:10242000B0CFBD016D577D4FD12CC12CC91608F01E
:1024300069C0FA01EC0DFD1DE491F0E04F01002EA2
:1024400002C0880C991C0A94E2F737FD04C0FB0116
:10245000808188298083FF2051F0373044F45B016C
:10246000F0E8AF0EB11CF501808189298083FFEF70
:10247000CF1ADF0A6F5F7F4FD9CF6FEF70E00F2C5D
:1024800002C0660F771F0A94E2F760957095772E69
:10249000232F2E0D321709F474CFFD01ED57FD4F98
:1024A0006F01B12CA12CA91638F5FA01EA0DFB1D1C
:1024B000E491F0E02F01002E02C0440C551C0A9458
:1024C000E2F737FD05C0F6018081862384298083E9
:1024D000FF2059F037304CF44601F0E88F0E911C84
:1024E000F4018081872185298083FFEFAF1ABF0A1D
:1024F0008FEFC81AD80AD7CF3F5F4C0F5D1FA05887
:10250000BF4FC8CF3F5F4C0F5D1FA058BF4F86CF56
:102510003F5F4C0F5D1FA058BF4F4CCF6A0D7B1D16
:10252000232F2E0D321709F42CCFFD01ED57FD4F4F
:102530006F01B12CA12CA91688F5FB01EA0DFB1D3A
:102540008490912C002E02C0880C991C0A94E2F70A
:1025500080949094FA01EA0DFB1D6490712C002E7A
:1025600002C0660C771C0A94E2F737FD05C0F6013D
:102570008081882186298083FF2049F037303CF410
:10258000F601E058FF4F8081892187298083FFEF82
:10259000AF1ABF0A8FEFC81AD80ACDCF3F5F4C0FD2
:1025A0005D1F6C0F7D1FA058BF4FBCCFC92ED12C13
:1025B000FA01E60FF71FAD57BD4F00E810E00C1908
:1025C0001D09CC19DD09BE01660F771F41E050E0FF
:1025D0006A010F2C01C0CC0C0A94EAF7592F2E2D5A
:1025E000792ECF93DF93ED01EF96EF9622968590AB
:1025F000A590FF2059F08C9C4001AC9C50013730D5
:102600002CF4E880B094EB20E928E99233233AF0E7
:10261000EC90A094EA20E828ED920C941013119607
:102620005A9529F72A9551F0572D33951124E60F25
:10263000F11DA00FB11DC00FD11DD9CFDF91CF91DA
:1026400011249FCECF92EF920F93FA01049131960D
:10265000E4904E5F5F4F2223F9F0A1E0B0E03E2D01
:10266000377011F4B0E0A0E0EE2DE695E695E69522
:10267000EA0FFB2FF11D0E9FD0010F9FB00D11240B
:1026800030E0220F331FA29FF001A39FF00DB29FF5
:10269000F00D11244E0F5F1F23E0C22E30E020E02A
:1026A0000E9439110F91EF90CF900895CF92EF9241
:1026B0000F934115510541F1FA0104913196E490CF
:1026C0004E5F5F4F2223D1F0A1E0B0E03E2D377086
:1026D00011F4B0E0A0E0EE2DE695E695E695EA0F60
:1026E000FB2FF11D0E9FD0010F9FB00D11242A9FCB
:1026F000F0012B9FF00D11244E0F5F1F2AEFC22E09
:1027000030E020E00E9439110F91EF90CF900895B2
:102710002D9A0895BC0190E080E00C94A90F8FB130
:102720008095807F669B88601C9B846008951092D2
:102730004E023E983F9808953E9A3F9A81E08093DA
:102740004E02089590916102982329F490916202BB
:10275000982381E009F480E00895CF93C82F0E9468
:102760008F13982F9C2381E09C1380E0CF910895D4
:1027700080914D0291E0892780934D02E1E4F2E0DF
:1027800087818F5F87830895E1E4F2E087818F5F1F
:10279000878308958CE00E94A213882329F081E0AA
:1027A0008093630210924002089581E080933F027B
:1027B000809140028F5F80934002089520E04CEEAC
:1027C00058E168E170E08FE290E00E94561388E0E3
:1027D0000E94A213882319F087E080936302089572
:1027E00087E0809363021092400280913B028F5FEA
:1027F00080933B0280EE9FEF90933E0280933D02D8
:1028000084E980933C02EDE2F2E081E0848315826A
:1028100010923F0280931902E3E1F2E08CE190E034
:10282000918380838CE590E09383828380E890E0BD
:10283000978386830895809163022FE1863009F49F
:1028400027E280913D0290913E02281719065CF420
:10285000049790933E0280933D0280913C028C5FEE
:1028600080933C020895809140028F5F80934002E4
:102870000895809163022FE1863009F427E2809168
:102880003D0290913E022817190661F05CF0049613
:1028900090933E0280933D0280913C02845080934D
:1028A0003C020895809140028F5F8093400208951A
:1028B00080916302893041F410923F02809140027E
:1028C0008F5F80934002089581E080933F02F6CFAE
:1028D00010923B0210920D0210920E0210920F0203
:1028E00010921002109233021092370210923802A6
:1028F00010923902E6E7F7E087EC97E0148216823F
:1029000039968E179F07D1F789E0E2E1F1E0A4EC58
:10291000B1E001900D928A95E1F789E0EBE1F1E0F9
:10292000ADECB1E001900D928A95E1F789E0E4E227
:10293000F1E0A6EDB1E001900D928A95E1F789E012
:10294000EDE2F1E0AFEDB1E001900D928A95E1F793
:1029500089E0E6E3F1E0A8EEB1E001900D928A95FE
:10296000E1F789E0EFE3F1E0A1EFB1E001900D9232
:102970008A95E1F789E0E8E4F1E0AAEFB1E001909F
:102980000D928A95E1F789E0E1E5F1E0A3E0B2E09C
:1029900001900D928A95E1F710921A021092BB06EF
:1029A000ECEBF6E080E020E830E0868317823183AC
:1029B000208311868F5F3A968930B9F71092880686
:1029C00010928F061092960610929D061092A40601
:1029D0001092AB061092B2061092B90680E1809375
:1029E0002D0288E180932E0210922F0281E08093C5
:1029F000300284E080933502109234021092470234
:102A000030934202209341021092400210920C0235
:102A100080EE9FEF90933E0280933D0284E9809385
:102A20003C0286E0809363020895EDE2F2E080E1EB
:102A3000808380E281838AE080936302089586E048
:102A4000809363020895ACEBB6E024E030E0C90166
:102A50008F709927FC01EF5FF34FE491F0E0EC5A9F
:102A6000FF4F1196FC93EE938F50944FFC0184918D
:102A700090E00396880F991F13969C938E9312975C
:102A8000295F3F4F1A962C33310509F780915D027B
:102A900090915E0262E170E00E946131892BC9F47D
:102AA00080910C02E82FE7709AE0E99FF001112471
:102AB000E454F94F90E396838F5F803118F480934C
:102AC0000C02089510920C0280913A028F5F80935D
:102AD0003A02089580915D0290915E028370992779
:102AE000892B29F480910C028F5F80930C028091D6
:102AF0000C02813158F080916302873041F480915B
:102B00003A028F5F80933A0210920C0208958091EE
:102B100040028F5F80934002F7CF80913F0291E0A7
:102B2000892780933F020C946A150C946A15ECEB8C
:102B3000F6E080E09681991F9927991F890F3A96B0
:102B400097E0E631F907B1F7811105C080913A02AB
:102B50008F5F80933A02089580913A02909111021A
:102B6000891721F08093110281E0089580E0089593
:102B7000109248020895109248020895209112027E
:102B8000422F50E0440F551F81E090E0841B950BCD
:102B9000880F991F4091410250914202840F951F66
:102BA000909342028093410281E0282720931202F1
:102BB00080914C028F5F863018F480934C02089508
:102BC00010924C02809148028F5F809348020895D2
:102BD00080914102909142028C3E2FEF920734F097
:102BE0000A97909342028093410208950C94C41373
:102BF00080914102909142028734910534F401960C
:102C0000909342028093410208950C94C4138091E2
:102C1000430290914402863F2FEF920734F00297CF
:102C2000909344028093430208950C94C4138091BE
:102C30004302909144028C30910534F002979093B6
:102C400044028093430208950C94C413809141027E
:102C5000909142028134910534F0019790934202A1
:102C60008093410208950C94C413A1E4B2E0189635
:102C70009C9118978AE0989FF0011124E454F94F31
:102C80008681807D8061868384E080872D913C9160
:102C90001197205F3F4F3183208312962D913C91F5
:102CA00013972C5E3F4F3383228321E030E035833E
:102CB00024839F5F18969C93089580911202882325
:102CC000E9F080914302909144028B3E9F4F0CF4B7
:102CD00040C080915D0290915E0262E170E00E94CE
:102CE0006131892B11F40E94351680914302909135
:102CF000440202979093440280934302809112020F
:102D000081111BC08091430290914402889724F561
:102D100080915D0290915E0266E170E00E946131F7
:102D2000892B11F40E943516809143029091440240
:102D30000296909344028093430280914C02853026
:102D400038F010924C02809148028F5F80934802C5
:102D5000089510921202D2CF81E0809312028091E6
:102D60004C028F5F80934C02E8CFCF93DF93C091EA
:102D70005D02D0915E02CE0168E270E00E94613196
:102D8000892B29F5909149028AE0989FF00111243E
:102D9000E454F94F86818F7D8061868385E080874A
:102DA00020914102309142022E5F3F4F31832083B8
:102DB0002091430230914402205F3F4F33832283AE
:102DC00021E030E0358324839F5F90934902CE0158
:102DD00066E070E00E946131892BC9F480914C0259
:102DE0008F5F80934C028930A8F4809141029091CA
:102DF00042020197909342028093410280914302E4
:102E00009091440201979093440280934302DF9192
:102E1000CF910895813130F4809141029091420226
:102E20000196E8CF893178F4809141029091420275
:102E300001969093420280934102809143029091C7
:102E400044020196E0CF893230F4809141029091A2
:102E500042020197EECF813338F38933E8F28134AF
:102E600020F210924C02D3CF809143029091440201
:102E70002091C30130E0821793072CF402969093BF
:102E800044028093430280914302909144022817A8
:102E900039072CF402979093440280934302809167
:102EA000410290914202893D2FEF920734F005973D
:102EB000909342028093410208950C94B81380913C
:102EC0004302909144022091C30130E0821793079E
:102ED0002CF4029690934402809343028091430223
:102EE00090914402281739072CF4029790934402DA
:102EF000809343028091410290914202883891056B
:102F000034F40596909342028093410208950C9404
:102F1000B81380912E028093C301E1E4F2E087812F
:102F20008F5F8783089510921202E1E4F2E08781B7
:102F30008F5F8783089580915D0290915E02837018
:102F40009927892B29F48091C2018F5F8093C20158
:102F50008091C201813138F0809148028F5F809367
:102F600048021092C20108950C949B170C949B1771
:102F7000809141029091420220915D0230915E0267
:102F800023703327232B19F520912D0228171906BA
:102F9000F1F0ECF0209143023091440240912E0276
:102FA00050E02417350734F42F5F3F4F309344022D
:102FB0002093430220914302309144024217530769
:102FC00034F421503109309344022093430288386D
:102FD000910534F402969093420280934102089541
:102FE0000C94B813809141029091420220915D02AD
:102FF00030915E0223703327232B51F0893D2FEF50
:1030000092074CF1029790934202809341020895F7
:1030100020912D02281719068CF720914302309138
:10302000440240912E0250E02417350734F42F5FFC
:103030003F4F30934402209343022091430230914A
:10304000440242175307D4F6215031093093440209
:1030500020934302D7CF0C94B81381E080931202DF
:103060008091470280648093470280914102909151
:10307000420297FF06C0019690934202809341025C
:1030800008950C94C41381E080931202809147024A
:103090008064809347028091410290914202813680
:1030A000910534F001979093420280934102089574
:1030B0000C94C4130C94431810921902E1E4F2E04A
:1030C00080E986831782118613861092C20181E0FF
:1030D0008093120210924D0280E890E091838083E9
:1030E00080913B028150990B63E070E00E94753142
:1030F000DB01A758BE4F8C9190E093838283DB0164
:10310000A656BE4F8C9190E0958384836287089584
:103110000E94AC1581110E945C18E0914802F0E019
:10312000EE0FFF1FE552F44F85919491FC01099534
:103130008091470287FD05C080913A028F5F80939E
:103140003A0208950E94AC1581110E945C18E0912A
:103150004802F0E0EE0FFF1FEB52F44F859194917F
:10316000FC0109958091470287FD05C080913A02D4
:103170008F5F80933A0208950E94AC1581110E94DE
:103180005C18E0914802F0E0EE0FFF1FEB55F44FA2
:1031900085919491FC0109958091470287FD05C0B6
:1031A00080913A028F5F80933A0208959AE0899F56
:1031B000F0011124E454F94F50E0861708F04AC09A
:1031C000968195FD39C020813181241B350B3183D7
:1031D0002083D901A956B1091F9740F4A281B38178
:1031E000AD30B1051CF01297B383A283D901AA5464
:1031F000B1095F9740F4A281B381A433B1051CF4F7
:103200001296B383A283D9019B975F9740F4A28162
:10321000B381AD30B1051CF01297B383A283D901FD
:103220001B97909760F4228133812433310524F475
:103230002E5F3F4F338322838F5F3A96BECF2B3072
:103240003105D4F72281338121313105ACF322508D
:103250003109F0CF08959AE0899FF0011124E454D8
:10326000F94F50E0968195FD1BC020813181241BD0
:10327000350B318320832834310594F42281338146
:103280002032310524F42F5F3F4F33832283228184
:1032900033812032310524F02150310933832283D8
:1032A0008F5F3A966813DECF08959AE0899FF00108
:1032B0001124E454F94F50E0861760F4968195FD8F
:1032C00006C020813181241B350B318320838F5F21
:1032D0003A96F2CF0895CF92DF92EF92FF920F933A
:1032E0001F93CF93DF939AE0699FF0011124E45478
:1032F000F94FD9019801082F10E00D581E4F64179F
:10330000B0F4962F906996838087B183A08333832E
:103310002283E8019881C92FD0E0D583C483118628
:103320006F5F3A96AE0DBF1D2C0D3D1DE8CFDF91AE
:10333000CF911F910F91FF90EF90DF90CF90089564
:10334000CF92DF92EF92FF920F931F930E94AC15E2
:10335000882301F1D12CC12C80ECE82EF12C0AE05D
:1033600010E020E830E043E060E083E00E946B1969
:1033700000E310E020E830E046E063E083E00E94F4
:103380006B190DE110E020E231E049E066E081E0F8
:103390000E946B1942E066E080E00E94551943E00C
:1033A00069E086E00E94551980915D0290915E026D
:1033B00062E370E00E946131892B19F486E00E947B
:1033C000BA0D1F910F91FF90EF90DF90CF900C946A
:1033D0009715CF92DF92EF92FF920F931F930E9467
:1033E000AC158823B9F0D12CC12C80ECE82EF12C3F
:1033F0000AE010E020E830E044E060E083E00E9472
:103400006B1900E310E020EC30E048E064E083E07A
:103410000E946B1942E068E080E00E94551980919B
:103420005D0290915E0262E370E00E946131892B3F
:1034300019F488E00E94BA0D1F910F91FF90EF9050
:10344000DF90CF900C949715CF92DF92EF92FF927E
:103450000F931F930E94AC158823B9F0D12CC12C77
:1034600080E8E82EF12C0CE010E020E830E044E0A9
:1034700060E083E00E946B1904E210E020EB30E092
:1034800048E064E083E00E946B1941E068E080E07E
:103490000E94D6181F910F91FF90EF90DF90CF9070
:1034A0000C949715CF92DF92EF92FF920F931F9398
:1034B0000E94AC158823E9F080E2C82ED12C90E55B
:1034C000E92EF12C00E410E020E830E046E060E076
:1034D00082E00E946B19D12CC12C20E6E22EF12C47
:1034E0000CE010E020E231E049E066E081E00E947B
:1034F0006B1986E00E94020E42E066E080E00E94C6
:10350000551942E069E086E00E94D6181F910F919C
:10351000FF90EF90DF90CF900C949715CF92DF92B1
:10352000EF92FF920F931F930E94AC15882379F0BE
:1035300080E1C82ED12C98E2E92EF12C00E410E0B5
:1035400020E830E049E060E082E00E946B1989E009
:103550000E94020E42E069E080E00E9455191F912E
:103560000F91FF90EF90DF90CF900C949715CF9232
:10357000DF92EF92FF920F931F930E94AC15882366
:1035800069F180E1C82ED12C98E2E92EF12C00E4FB
:1035900010E020E130E043E060E082E00E946B193F
:1035A000D12CC12C20E3E22EF12C0CEA10E020E219
:1035B00030E045E063E082E00E946B1930EFC32EFB
:1035C000DD24DA9448E2E42EF12C00E011E020E161
:1035D00030E048E065E082E00E946B1988E00E94DC
:1035E000020E1F910F91FF90EF90DF90CF900C94FF
:1035F0009715CF92DF92EF92FF920F931F930E9445
:10360000AC15882319F1D12CC12C80E6E82EF12CC1
:103610000EE110E020E830E043E060E081E00E944D
:103620006B19E12CFF24F3940CE010E020E031E072
:1036300046E063E081E00E946B1900E310E020E0C7
:1036400031E049E066E081E00E946B1941E063E00F
:1036500080E00E94D61842E069E083E00E9455199C
:103660001F910F91FF90EF90DF90CF900C949715E2
:10367000CF92DF92EF92FF920F931F930E94AC15AF
:10368000882349F1D12CC12CE12CFF24F3940FE1C4
:1036900010E020E830E042E060E081E00E946B1939
:1036A0000AE010E020EC30E044E062E081E00E94BB
:1036B0006B1900E310E020E431E046E064E081E0D3
:1036C0000E946B190FE110E020E031E048E066E075
:1036D00081E00E946B1942E062E080E00E9455198F
:1036E00042E066E082E00E942B1942E068E086E05A
:1036F0000E94D6181F910F91FF90EF90DF90CF900E
:103700000C949715CF92DF92EF92FF920F931F9335
:103710000E94AC15882301F1D12CC12C80E9E82E40
:10372000F12C00E110E020E830E043E060E081E0CF
:103730000E946B190CE210E020E830E046E063E004
:1037400081E00E946B190EE110E028EC30E049E0C6
:1037500066E081E00E946B1941E069E086E00E942A
:10376000D61841E066E080E00E9455191F910F9144
:10377000FF90EF90DF90CF900C949715CF92DF924F
:10378000EF92FF920F931F930E94AC15882331F1A3
:10379000D12CC12C80E9E82EF12C0CE010E020E8BF
:1037A00030E042E060E081E00E946B1998E4E92E8D
:1037B000F12C0EE110E020E830E046E062E081E02C
:1037C0000E946B1920E9E22EF12C00E310E028ECB6
:1037D00030E048E066E081E00E946B1942E069E079
:1037E00080E00E9455191F910F91FF90EF90DF909C
:1037F000CF900C949715CF92DF92EF92FF920F9398
:103800001F930E94AC15882301F1D12CC12CE12C0F
:10381000FF24F3940CE010E020E830E043E060E0A7
:1038200081E00E946B1900E310E020E031E046E007
:1038300063E081E00E946B190FE110E020EC30E0C2
:1038400049E066E081E00E946B1942E069E080E0B7
:103850000E942B191F910F91FF90EF90DF90CF9056
:103860000C949715CF92DF92EF92FF920F931F93D4
:103870000E94AC15882319F1D12CC12C80ECE82EC4
:10388000F12C0CE010E020E830E043E060E080E064
:103890000E946B1900E310E020E830E046E063E0AE
:1038A00080E00E946B19E12CFF24F3940AE110E000
:1038B00020EC30E049E066E081E00E946B1942E0D4
:1038C00066E080E00E94551943E069E086E00E94CE
:1038D00055191F910F91FF90EF90DF90CF900C94AE
:1038E0009715CF92DF92EF92FF920F931F930E9452
:1038F000AC15882309F1D12CC12C80E2E82EFF24DD
:10390000F3940CE010E020E830E043E060E081E078
:103910000E946B1900E210E020E431E046E063E031
:1039200081E00E946B1900E310E020EE30E049E0F6
:1039300066E081E00E946B1943E069E080E00E944C
:1039400055191F910F91FF90EF90DF90CF900C943D
:103950009715CF92DF92EF92FF920F931F930E94E1
:10396000AC15882301F1D12CC12C88E1E82EF12C73
:103970000CE010E020E830E043E060E081E00E94ED
:103980006B190EE110E020E830E046E063E081E0F2
:103990000E946B1900E310E020E830E049E066E0A7
:1039A00081E00E946B1941E069E080E00E945519B6
:1039B0001F910F91FF90EF90DF90CF900C9497158F
:1039C000CF92DF92EF92FF920F931F930E94AC155C
:1039D000882379F086E0C82ED12C98E2E92EF12CCC
:1039E0000CE010E020E830E048E060E080E00E9479
:1039F0006B1943E068E080E00E9455191F910F9118
:103A0000FF90EF90DF90CF900C949715CF92DF92BC
:103A1000EF92FF920F931F930E94AC15882371F0D1
:103A2000D12CC12C84E2E82EF12C00E210E020E839
:103A300030E049E060E080E00E946B1943E069E01B
:103A400080E00E94D6181F910F91FF90EF90DF90B9
:103A5000CF900C949715CF92DF92EF92FF920F9335
:103A60001F930E94AC158823B9F0D12CC12C80E69D
:103A7000E82EF12C0CE010E020E830E044E060E0BB
:103A800080E00E946B1904E310E020EB30E048E096
:103A900064E080E00E946B1943E068E080E00E94EF
:103AA0002B191F910F91FF90EF90DF90CF900C9406
:103AB0009715CF92DF92EF92FF920F931F930E9480
:103AC000AC15882301F1D12CC12C80ECE82EF12C0F
:103AD0000CE010E020E830E043E060E080E00E948D
:103AE0006B1900E210E020E031E046E063E080E0A6
:103AF0000E946B1900E310E020EC30E049E065E043
:103B000080E00E946B1943E069E080E00E94551953
:103B10001F910F91FF90EF90DF90CF900C9497152D
:103B2000EBE1F2E0838380E890E0918380838091F1
:103B3000C101A82FB0E0A559BE4F9C91928391E09E
:103B400095838F5F87708093C101089586E00E94FE
:103B5000901D80913A028F5F80933A02089585E02C
:103B60000E94901D80913A028F5F80933A020895DF
:103B700084E00E94901D80913A028F5F80933A0208
:103B8000089583E00E94901D80913A028F5F809398
:103B90003A02089582E00E94901D80913A028F5F60
:103BA00080933A02089581E00E94901D80913A022C
:103BB0008F5F80933A02089580E00E94901D80916B
:103BC0003A028F5F80933A0208952091C0012F5FDF
:103BD000223050F52093C001E091C00126E0E29F21
:103BE000F0011124EF5DFD4F608341839383828355
:103BF000092E000CAA0BBB0B40910D0250910E0236
:103C000060910F0270911002840F951FA61FB71FBD
:103C100080930D0290930E02A0930F02B0931002B6
:103C200081E08583848308951092C001D5CF64E13B
:103C300070E080E793E00E941D1180913802282FE8
:103C400030E099E0899FF0011124EA58F84F9481FF
:103C500091112AC09581923009F0168290912F021D
:103C600049E0429FF001439FF00D1124EA58F84FBC
:103C7000958321E0248320912D02285F20832091C9
:103C80002E0230E02A5F3F4F32832183A92FB0E01C
:103C9000A959BE4F2C912383933061F49091370240
:103CA000920F9383109237028F5F8930D8F48093FC
:103CB000380208959230B1F790913902A92FB0E0FF
:103CC000AA0FBB1FAF59BE4F2D913C913087278360
:103CD00096839F5F933018F490933902E3CF10924C
:103CE0003902E0CF109238020895CF92DF92EF921E
:103CF000FF920F931F93CF93DF938091320288231B
:103D000029F1C4ECD1E006ED11E02885822F90E086
:103D1000FC01EF50F44F6491FC01EF5FF34FE4912D
:103D2000237080912E028750990B680F792F711D97
:103D300080912D028750990B43E85BE08E0F911D17
:103D40000E94561329960C171D07F9F68091300230
:103D5000882361F060912E0270E080912D02209105
:103D6000360241E05AE090E00E9422138091330233
:103D7000882309F446C0C4ECD1E08CE0C82E82E070
:103D8000D82E28852770E0902E02F12C422F50E08B
:103D900000912D0210E06A817B816E0D7F1DEE8106
:103DA000FF814E9FC0014F9F900D5E9F900D11248B
:103DB000680F791F88819981800F911FAC81BD8127
:103DC0004A9FF0014B9FF00D5A9FF00D11244FEDCB
:103DD00059E08E0F9F1F0E9456132996CC16DD06C0
:103DE00081F6209137024DE859E0B701C801DF9113
:103DF000CF911F910F91FF90EF90DF90CF900C9497
:103E00002213DF91CF911F910F91FF90EF90DF90E0
:103E1000CF90089520915D0230915E028091310231
:103E20008823E9F0C90163E070E00E946131892BC9
:103E300059F4809134028F5F809334028091300274
:103E400091E0892780933002809134028F3138F0DD
:103E5000109234021092310281E0809330028091FE
:103E600032028823B9F0C90163E070E00E94613139
:103E7000892B29F4809134028F5F809334028091E2
:103E800034028B3F38F0109234021092320281E0FB
:103E90008093300280913502823030F484E8809340
:103EA0003C0289E080936302C9016AE070E00E94ED
:103EB0006131892B41F4809136028F5F66E00E9468
:103EC000553190933602C90165E070E00E9461317E
:103ED000892B61F4E4ECF1E02CE032E080858F5F27
:103EE0008F70808739962E173F07C1F708950E947B
:103EF0000A1F0E94751E10923A028FEF80931102E2
:103F0000809147028F7E8093470280913F028823F1
:103F1000B9F020E04FE55CE06CE170E080913D029B
:103F200090913E020E94561320913B022F5F809198
:103F30003C0241E25CE06CE170E090E00E945613CC
:103F4000E0914002F0E0EE0FFF1FEF5EF34F85912E
:103F50009491FC01099420E04FE658E06AE070E09B
:103F600081E290E00E94561320E045EC57E06FE1BB
:103F700070E084E290E00E9456138CE00E94A2134D
:103F8000882319F081E08093630208958CE00E94F9
:103F9000A213882319F081E0809363020895CF93E0
:103FA000C0910C02CF5FC0930C0220E04FE156E0BD
:103FB00064E070E082E290E00E945613C53B28F076
:103FC00010920C0281E080936302CF910895CF9309
:103FD00020915D0290915E02822F6AE070E00E9463
:103FE0006131892B29F48091BF018F5F8093BF01DC
:103FF00020FD05C08091BE018F5F8093BE0180913E
:10400000BE018D3310F01092BE01C091BE01C730C9
:1040100008F0C0E08091BF01843010F01092BF0121
:1040200020E04FE658E061E070E084E290E00E941A
:10403000561320E040EC55E065E170E08BE390E042
:104040000E94561320E04CE855E060E370E08EE3F8
:1040500090E00E94561320E04AEF54E06EE270E0D8
:1040600084E090E00E9456132091BF0148E751E0A0
:104070006EE070E083E090E00E945613EC2FF0E0D9
:10408000E65AFE4F20814AE351E068E170E08AE0A1
:1040900090E0CF910C9456130F931F93CF930E94EF
:1040A000E71F00E210E0C0E02C2F4FEF58E0B8010E
:1040B0008CE690E00E945613CF5F085F1F4FC4301C
:1040C00099F7C09100016C2F70E06E5F7F4F83E025
:1040D000660F771F8A95E1F720E04DEE58E08CE5FA
:1040E00090E00E94561380E10E94A213882329F0D9
:1040F000C53018F4CF5FC093000180E80E94A2137E
:10410000882339F080910001833018F0815080932A
:10411000000184E00E94A213882321F08091000115
:1041200080936302CF911F910F910895CF930E94C6
:10413000E71F24E04FEF58E068E270E08CE690E083
:104140000E94561325E04FEF58E060E370E08CE6E4
:1041500090E00E94561326E04FEF58E068E370E0CD
:104160008CE690E00E94561360914E0270E06A5F08
:104170007F4F83E0660F771F8A95E1F720E04DEED1
:1041800058E08CE590E00E94561380E10E94A21353
:1041900081110E949C1380E80E94A21381110E9449
:1041A00097138CE00E94A213882381F0C0914E02E5
:1041B00082E090E00E94EF30C81729F06C2F82E077
:1041C00090E00E94F73081E080936302CF910895E0
:1041D0006F927F928F929F92AF92BF92CF92DF9217
:1041E000EF92FF920F931F93CF93DF93CDB7DEB77C
:1041F0002A970FB6F894DEBF0FBECDBF982E609100
:104200000D0270910E0280910F02909110022AE02F
:10421000AE014F5F5F4F7A010E94AE30F70101900F
:104220000020E9F73197EE19FF09AE2E07E00E1BCB
:1042300010E0C02E002E000CDD0827E0B22E35E085
:10424000832E1C151D04A4F155E005026001112404
:104250008FE5C80ED11CE7E00E0280011124085D35
:104260001F4F812C0A2C000CBB0887E0782E95E0AC
:10427000692E882D90E08A159B050CF040C08E0DAC
:104280009F1DFC012081213374F120532A3058F501
:10429000F1E09F1651F145EF56E170E060E0C60194
:1042A000869C800D911D11240E9456138394E1CFAA
:1042B000F1E09F1671F0189DC001112420E045EF38
:1042C00056E170E060E0815A9F4F0E9456131F5FD5
:1042D000B8CF1B9DC001112420E041E25CE068E200
:1042E00070E08896F2CF20E0D3CF41E25CE068E254
:1042F00070E0C801879C800D911D1124D5CF2A96AE
:104300000FB6F894DEBF0FBECDBFDF91CF911F91E6
:104310000F91FF90EF90DF90CF90BF90AF909F9064
:104320008F907F906F900895E0914002F0E0EE0F43
:10433000FF1FE853F64E85919491FC0109958091F9
:104340003F028823C9F00E940A1F0E94751E20E0C8
:104350004CE859E16CE170E083E290E00E94561372
:1043600020E04CE559E160E170E089E290E00E94D4
:10437000561381E00C94E8200895E0914002F0E0AB
:10438000EE0FFF1FE45BF64E85919491FC010995B9
:1043900020E04EE259E160E170E080913D029091B1
:1043A0003E020E94561380913C0220E040E159E118
:1043B00060E170E090E00E94561380913F028823F4
:1043C00061F020E04CE859E16CE170E083E290E0BC
:1043D0000E94561381E00C94E82008952F923F929A
:1043E0004F925F926F927F928F929F92AF92BF9205
:1043F000CF92DF92EF92FF920F931F93CF93DF93B1
:10440000CDB7DEB76A970FB6F894DEBF0FBECDBF4B
:1044100080912D02282F30E03E8B2D8B2E5F3F4F59
:10442000388F2F8B80912E02C82ED12CA6014E5F83
:104430005F4F5A8F498F0091410210914202409084
:1044400043025090440252E0450E511C66E777E06B
:10445000798B688B7C876B879CE09A8BA0E2AF8717
:10446000EB85FC858481882309F4D0C0E581F0E0E8
:10447000E257FE4FA080AB85BC858C91A80EBB2473
:10448000BB1C11968D909C902CEBE22E26E0F22E18
:104490001501B8E02B0E311C3401E8E06E0E711CE2
:1044A000D70116962C91169724FF53C025FD51C0B5
:1044B0006D917C911197621573050CF04AC01896A6
:1044C0008C91189790E0FC01E857FE4F4081460F11
:1044D000572F511DA416B506E4F512964D915C9127
:1044E00046155705B4F58E579E4FFC018081840F09
:1044F000952F911D8816990664F526FD24C06AE063
:1045000070E08BE092E00E941D11AB85BC85139694
:104510002C91F70184819581821B91099583848375
:10452000268120642683181619066CF0E085F0E0D9
:10453000E458FE4F8081D70112964C9112976C91EE
:1045400090E00E94E51DEB85FC858581833009F0B4
:104550001482FAE0EF0EF11C26E1E21627E0F206E3
:1045600009F09ECF8091470284FF50C0807609F009
:104570004DC080914B02813009F4AFC108F49DC158
:10458000823009F4BCC1C501089608171907F4F573
:10459000C801EF858E0F911DA816B906BCF5C401A0
:1045A00008964816590694F5C201FA898F0F911D95
:1045B000881699065CF56AE070E08BE092E00E9454
:1045C0001D1180914702806480934702AB85BC85B2
:1045D00014961C92149713968C91E0904502F090DB
:1045E0004602E81AF108F0924602E0924502442D94
:1045F000602F8AE090E00E94E51D1E141F0434F035
:10460000442D602F88E893E10E94E51DEB85FC8531
:104610003996FC87EB87E75CF74009F021CF8CEBFC
:10462000282E86E0382E96E1692E97E0792E3E8678
:104630002D868D889E885EE0850E911C76016EE049
:10464000E60EF11CBB24B394AD85BE8516968C9105
:10465000169784FF46C085FD44C06D917C911197EB
:1046600068157905F4F518962C91189730E0F90142
:10467000E857FE4F4081460F572F511DEF89F88DA7
:10468000E417F50774F512964D915C914E155F0590
:1046900044F52E573E4FD9012C91240F352F311D53
:1046A000E98DFA8DE217F307E4F49091310291114C
:1046B0000BC090913202911107C0B09231029091DB
:1046C000350291509093350286FD0BC08062AD8516
:1046D000BE8516968C936FE070E08DE299E00E94A3
:1046E0001D11ED85FE853A96FE87ED876E167F06D5
:1046F00009F0AACF23E836E03C8B2B8B39018D885B
:104700009E883EE0830E911C56014EE0A40EB11C23
:10471000FF24F394D30115968C9115978823B1F15A
:104720008D919C9111979C012F5F3F4F2815390562
:104730006CF50796EF89F88DE817F9073CF51296A6
:104740008D919C919C012F5F3F4F2A153B05F4F4FE
:104750000796298D3A8D28173907C4F480913102C4
:10476000811114C080913202811110C06FE070E09D
:104770008DE299E00E941D11F09231028091350284
:10478000815080933502D30115961C92B7E06B0ED1
:10479000711CEBEB6E16E6E07E0609F0BBCF809154
:1047A000470284FF4FC085FD4DC090914B02913070
:1047B00009F4C7C008F4B5C0923009F4D4C02D89FB
:1047C0003E89225F3F4F02171307E4F5BF850B0FA9
:1047D000111DEF89F88DE017F107A4F59601225F0E
:1047E0003F4F4216530674F5FA894F0E511C298D1E
:1047F0003A8D2415350534F586FD14C06FE070E060
:104800008DE299E00E941D1180914702806480939F
:10481000470280914502909146020197909346028B
:10482000809345028091310281110CC08091320247
:10483000811108C081E0809331028091350281505E
:104840008093350280912002882309F4BAC06091D8
:104850001B0270911C0240911D028D899E890E964B
:10486000681779070CF0ADC0CB010896AF89B88DF9
:10487000A817B9070CF0A5C0242F30E0C6010E968A
:10488000281739070CF09DC0285F3F4FE98DFA8D3E
:10489000E217F3070CF095C0E0911E02E73008F034
:1048A0007CC0F0E0EA5AFB4D0C948931C5240827FE
:1048B0000C270F2713271527172700914102109166
:1048C0004202409043025090440232E0430E511C99
:1048D0004CE04A8B50E25F8756CE00914102109126
:1048E00042020E5F1F4F409043025090440262E02C
:1048F000460E511C76E07A8B86E08F8744CE00917D
:104900004102109142020A5D1F4F409043025090B5
:1049100044029FE0490E511CA5E0AA8BB5E0BF8779
:1049200032CE0091410210914202409043025090D9
:104930004402F2E04F0E511C2CE02A8B30E23F87FC
:104940003ECF00914102109142020E5F1F4F4090F6
:1049500043025090440242E0440E511C5CE15A8BE9
:104960006CE06F872CCF00914102109142020D5EE6
:104970001F4F40904302509044027AE0470E511C72
:1049800098E29A8BAEE2AF871ACF809135028530DC
:1049900008F039C28F5F80933502109220026FE0D9
:1049A00070E08DE298E00E941D1164E170E080E00B
:1049B00090E00E94A90F6EE170E08AE590E10E940C
:1049C0001D1180E10E94AD13882339F080912E02E1
:1049D000843318F48F5F80932E0280E20E94AD131F
:1049E000882339F080912D02882319F0815080931B
:1049F0002D0280E80E94AD13882339F080912E02A9
:104A0000882319F0815080932E0280E40E94AD1318
:104A1000882339F080912D02803718F48F5F8093BE
:104A20002D0288E00E94A213882319F088E0809369
:104A3000630284E00E94A213882321F190912F0247
:104A4000292F30E0F901EF5FFE4F80812A563E4F5B
:104A5000D9012C91821316C0911105C08150809309
:104A600001010E94171E80912F02823059F480911B
:104A700003018150809303010E94171E0E94171E9C
:104A80000E94171E84E00E94AD13882351F180918B
:104A90002F02813049F480910201883029F487E0A7
:104AA000809302010E94171E80912F028330C9F467
:104AB00081E08093330280915D0290915E026EE10D
:104AC00070E00E946131892B29F4809137028F5F59
:104AD0008093370280913702853018F084E080930C
:104AE00037020E948F1382FD13C080912F02833002
:104AF00079F480913302882359F010923302809127
:104B000004018150809304010E94171E1092370205
:104B100080912F0290E0FC01EF5FFE4F20818A56CA
:104B20009E4FDC019C91291728F48FEF820F09F426
:104B300081C18083A0905D02B0905E024501B1E02A
:104B40008B229924C50163E070E00E9461316C0101
:104B500016E7E12E17E0F12EF7019581292F30E0BD
:104B60008081913009F068C1C114D10409F071C18C
:104B700041E05681511140E0D70116964C932E56D4
:104B80003E4FF9012081820FD7018C93923071F44E
:104B900011962D913C91129717964D915C91189713
:104BA000240F351F12963C932E931197813838F4B9
:104BB000F7018181928107968834910518F0D70119
:104BC00014961C92B9E0EB0EF11CEB85FC85EE15FA
:104BD000FF0511F60E940A1FC50166E070E00E9401
:104BE0006131009781F5E3E8F6E041E050E0208193
:104BF0003181283F6FEF36073CF062817381685F37
:104C00007F4F6934710508F0158265816623B9F01C
:104C10002250310931832083268130E0220F331F57
:104C2000BA01621B730B22813381260F371F338336
:104C3000228324812F5F243008F017C12483379604
:104C40006E167F06A1F60CEB16E030E1D801149643
:104C50004D915C911597141615064CF016962C91F3
:104C6000169725FD04C0207B206216962C93F80130
:104C7000268126FF0FC0C114D10411F423272683F7
:104C8000D80117962C9117972F5F253108F0EFC0A8
:104C900017962C93D80116962C91169725FD15C0C2
:104CA000009719F42F5F16962C93F8012681422F56
:104CB0004F705085523009F431C4443010F0207FD9
:104CC0002683F801268125FF0DC0C114D10421F4EB
:104CD0002F5FD80116962C93F80126812F7026306D
:104CE00008F01682D8014D915C91403E5F4F34F040
:104CF000F80142815381403E5F4F1CF4D801169663
:104D00001C92065F1F4FED85FE85E017F10709F045
:104D10009DCF9091470294FF24C080914902863034
:104D200010F010924902ECEBF6E080E0268125FDC0
:104D300014C02081318121503109318320832085A5
:104D4000253059F4C114D10441F4823009F49BC0D8
:104D500008F094C0813009F49BC08F5F3A9686308A
:104D600029F72091450230914602121613067CF075
:104D700095FD0DC0ECEBF6E08681806286833A9665
:104D80000E171F07C9F7907B90629093470280919E
:104D9000470286FF16C0C114D10421F490E189278F
:104DA0008093470280914A028F5F80934A028A3142
:104DB00040F08091470210924A028F7B806180937D
:104DC000470220914702C5016AE070E00E9461310C
:104DD000FC0124FF70C025FDC5C180914B028111EB
:104DE0005EC080911202682F660F680F660F6C5FBD
:104DF00070E0C5010E946131892B09F053C02F5F1B
:104E0000209347024FC088EE93E00E94E51DC5CD78
:104E100081E080933202C1CD10922F02BECD81E09D
:104E200080932F02BACD82E0FBCF83E0F9CF84ECF0
:104E300099E0EBCF90837ECE933009F0A0CE811421
:104E4000910419F446814F5F4683F701468144304F
:104E500040F42E563E4FD9019C91890FF701808373
:104E6000A5CED70116961C928ACE1482E8CEF80100
:104E7000178226812F7B206126830CCF843041F05E
:104E8000853009F06ACF228133812F5F3F4F04C004
:104E90002281338121503109338322835ECF3097C1
:104EA00009F4ADCF80914702982F9F70943018F08D
:104EB000807F80934702EF2B99F4809115029091A7
:104EC00016022091130230911402215031093093BF
:104ED00014022093130201979093160280931502F7
:104EE000CD2849F480911702909118020197909370
:104EF0001802809317028091130290911402883F48
:104F00009F4F34F480E890E0909314028093130252
:104F10008091150290911602883F9F4F34F480E8EB
:104F200090E0909316028093150280911702909161
:104F30001802803F9F4F34F480E890E0909318026D
:104F40008093170280912002882311F1C50165E04A
:104F500070E00E946131892B31F480911F0291E051
:104F6000892780931F028114910449F480911B02C8
:104F700090911C02019790931C0280931B028091D8
:104F80001B0290911C02883F9F4F14F41092200244
:104F900080912602882389F080912202815080939B
:104FA00022029091250221E09227909325028230DF
:104FB00020F4109226021092250280912C02882360
:104FC00089F08091280281508093280290912B02D1
:104FD00021E0922790932B02823020F410922C0231
:104FE00010922B028928B9F480913B028150990BD1
:104FF00049E1489F9001499F300D1124E0913A0208
:10500000E20FF32FF11DEE0FFF1FE65DF84E8591C5
:105010009491FC01099580911902882309F461C0DB
:1050200020E044EF5CE070E060E080E290E00E940D
:10503000561321E044EF5CE068E070E088E290E025
:105040000E94561322E044EF5CE060E170E080E3F0
:1050500090E00E94561320E044EF5CE070E060E0D6
:105060008FE290E00E94561321E044EF5CE068E09C
:1050700070E087E390E00E94561322E044EF5CE08A
:1050800060E170E08FE390E00E94561320E042EC74
:105090005CE06CE170E080911302909114020E9438
:1050A000221320E042EC5CE06CE170E0809115029C
:1050B000909116020E942213C0901702D0901802FD
:1050C00020E040E85CE062E170E0C6010E9422134B
:1050D00020E042EC5CE062E170E0C60108960E94CC
:1050E00022132091450230914602121613062CF528
:1050F0009BEA299FB12C1124B694E0914B02F0E079
:10510000E656FE4F8081899F812D1124869570E29D
:10511000C72ED12CC81AD108CC0CDD1CA12C20E044
:1051200043E25DE06CE370E0C6010E942213A394A9
:10513000F4E0CF0ED11CBA1490F75090470254FE01
:1051400027C055FE1EC0252D2F706091430270911F
:1051500044024FE955E180914102909142020E9440
:10516000561316C0C114D10419F42F5F20934702BF
:10517000809147028F70863008F49DCE10924702CE
:105180009ACE80914B02813029F1B0F08230D9F172
:10519000D10116962C91169724FF7BC025FF6CC079
:1051A0002F7012966D917C9113974FE955E18D9177
:1051B0009C910E9456136DC020914D02220F220F28
:1051C000352D3F70230F609143027091440249E8EE
:1051D0005FE0C1CFC0904302D0904402A090410252
:1051E000B090420220E047E45FE0B601C5010E94B2
:1051F0005613252D2F70B601615F7F4F4DE25FE0A2
:10520000C5010C96ACCFC0904302D0904402A09050
:105210004102B0904202B601695E7F4F20E04BE14F
:105220005FE0C5010E945613B601685E7F4F20E023
:1052300049E55EE0C50140960E945613450148E1EC
:10524000840E911C252D2F70B601605F7F4F47E5BE
:105250005DE0C4010E945613B601685F7F4F20E0F5
:1052600045E35DE0C4010E94561320E04BE25DE09F
:10527000B601C501849673CFF1018085823009F4AF
:10528000E2C008F0BEC0882309F4C9C0813009F427
:10529000D0C0FAE02F0E311C2016310609F078CF6D
:1052A000AB89BC8915968C911597882369F0129665
:1052B0006D917C91139714962C91149741E656E1C9
:1052C0008D919C910E945613EB89FC893796FC8B3B
:1052D000EB8B6E167F0621F70E94751EA889B9898F
:1052E00014968C9114978823A1F01596EC9115973C
:1052F000F0E0EE0FFF1FE356FE4F40815181119603
:105300006D917C9112978C9116962C9190E00E9451
:105310005613E889F9893996F98BE88BEE15FF0564
:10532000E9F680912002882389F080911F0288236A
:1053300069F060911D0270E020911E0243E856E181
:1053400080911B0290911C020E94221301E212E044
:105350004DE2642E42E0742E9E012F5F3F4F5901B3
:1053600055E0452ED80115968C911597882309F4A0
:105370008CC014968C911497882309F486C01296D9
:105380006D917C91072E000C880B990B2AE0A501EA
:105390000E94AE30F50101900020E9F73197EE2E22
:1053A000EA18F8018180912CC080D12C2AE045EFC9
:1053B00056E1B401C6010E945613512C0E2C000C6C
:1053C000FF08F4E0CF0ED11C852D90E08E159F05CF
:1053D0000CF05BC08A0D9B1DDC012C9121330CF479
:1053E00052C020532A3008F04EC045EF56E1B401B8
:1053F000C601549C800D911D11240E945613539494
:10540000E3CF8430C1F188F1853009F042CF628169
:10541000738120E04BE851E180819181CACE2F70E9
:1054200012966D917C9113974DE155E18D919C9170
:1054300007C02F70628173814BE154E180819181BB
:105440000E94221326CF2F70253060F420931A0279
:10545000D10112966D917C91139720911A0249ED1A
:1054600052E1E4CF10921A02F3CF2F706281738160
:1054700047ED51E1E3CF2F7012966D917C91139718
:1054800045E951E194CE20E0B0CF0A5F1F4F60168E
:10549000710609F067CF10E000E020E048E157E135
:1054A00070E060E0C8010E945613085F1F4F003291
:1054B000110599F710E0812F90E0209135022150DD
:1054C000330B8217930774F421E048E157E170E051
:1054D00060E033E0880F991F3A95E1F70E94561378
:1054E0001F5FE9CF80E00E94E8206A960FB6F8942B
:1054F000DEBF0FBECDBFDF91CF911F910F91FF9007
:10550000EF90DF90CF90BF90AF909F908F907F9063
:105510006F905F904F903F902F9008954B3008F41C
:10552000D0CB207FD80116962C93CBCB1F920F9215
:105530000FB60F9211248F939F938091E100909169
:10554000E100937F9093E10083FF0FC01092E90088
:1055500091E09093EB001092EC0092E39093ED00B9
:105560001092820298E09093F00082FF22C093E0B4
:105570009093E9009091F200992319F09AE39093A7
:10558000E80090917302992341F090917302915039
:1055900090937302911101C05D9A909181029923B9
:1055A00041F090918102915090938102911101C03C
:1055B000289A84FF18C08091E2008E7E81608093DB
:1055C000E2008091E1008F7E8093E100809174027F
:1055D0008E7E8061809374029F918F910F900FBE99
:1055E0000F901F90189580FFF7CF8091E2008E7E7C
:1055F00080618093E2008091E1008E7E8093E100E3
:10560000809174028E7E8160E5CF1F920F920FB65B
:105610000F921124CF92DF92EF92FF920F931F937C
:105620002F933F934F935F936F937F938F939F93AA
:10563000AF93BF93EF93FF93CF93DF93CDB7DEB7D5
:105640006C97DEBFCDBF1092E9008091E80083FF28
:1056500025C068E0CE0145960E94770F82EF8093C7
:10566000E8008D8987FF39C09091E80090FFFCCF5A
:10567000982F907609F034C19E894F89588D2F89D3
:10568000F88C911131C0803861F58091720280935D
:10569000F1001092F1008EEF8093E8006C960FB647
:1056A000F894DEBF0FBECDBFDF91CF91FF91EF9198
:1056B000BF91AF919F918F917F916F915F914F912A
:1056C0003F912F911F910F91FF90EF90DF90CF901E
:1056D0000F900FBE0F901F9018959EEF9093E800CB
:1056E000C7CF1092F100D5CF913059F48111D3CFAB
:1056F0004130510581F6809172028D7F8093720254
:10570000CACF933049F48111C6CF4130510519F603
:10571000809172028260F2CF953041F48091E8006E
:1057200080FFFCCF20682093E300B5CF963009F0CE
:10573000A9C00B8D1C8D22E01092E900109270021E
:1057400010926F02F2122EC010926E0210926D0231
:105750000E94460F1F8299E09983FA8291E09E830E
:1057600090EA98879AEF998720916F0230917002A2
:10577000275F3F4F3C832B838D831092E90010926B
:10578000700210926F0210936E0200936D0249E056
:1057900050E0BE016F5F7F4F80E00E94200F0E94AB
:1057A000460F79CF10936E0200936D020E945D0E3A
:1057B000DC0112960D911C910115110509F451C1DE
:1057C000D801ED91FC910480F581E02DBE016B5E66
:1057D0007F4FC8010995009709F03EC1F801008587
:1057E0001185EACFF3E0FF120EC08F89882309F4F8
:1057F00040C0823061F440E860E187E09BE10E94B4
:10580000E22D811148CF81E28093EB0047CF8130B8
:1058100029F440E86BE08BEF9AE1F1CF833099F700
:105820000E945D0EDC011296ED90FC908E010F5FE0
:105830001F4F6801E114F10479F0D701ED91FC915B
:105840000680F781E02DB801C7010995080F111DE9
:10585000F701E084F184EECFD8011C92F6010190AB
:105860000020E9F73197BF016C197D0940E0C601BE
:10587000C6CF65EE7AE1FB01449150E080E80E94DA
:10588000200F09CF973009F4BECF983021F481E082
:105890008093F10000CF993009F0FDCE837009F0BC
:1058A000B2CFE6EAF1E081E031E096E321912223F4
:1058B00071F08093E9003093EB00DF0111972C9198
:1058C0002093EC009093ED008F5F873079F78EE79F
:1058D0008093EA001092EA008F8980938202DBCEE7
:1058E0008B8D9C8D1092E9001092700210926F02C5
:1058F00090936E0280936D02898D811192C08E8982
:105900009D89913A49F4813209F07DCF47E050E01A
:105910006AE071E080E0B3CF913209F074CF833256
:1059200069F48F89988DB0E0A0E080930601909390
:105930000701A0930801B0930901ADCE803269F44C
:105940008091E80082FFFCCF67E08AE091E00E944E
:10595000770F8BEF8093E8009ECE823209F09BCECA
:105960008F8980931101EEEFFFE7859194918B3F32
:105970009C4D51F1E0E0F8E080910A0190910B011B
:10598000A0910C01B0910D01803B9440A105B1059F
:10599000F1F48091110180FD1AC0EE3F8AE0F80712
:1059A00089F587E797E791838083809160008093F2
:1059B000710288E19BE00FB6F894A895809360008F
:1059C0000FBE9093600067CEEEEFFAE0D5CF8081F6
:1059D00091818737974709F05ECEA8958091600046
:1059E0008861809360008091710280936000EE3F37
:1059F0002AE0F20789F08091FE0A9091FF0A9183D4
:105A0000808349CE808191818737980751F29093A6
:105A1000FF0A8093FE0AC5CF1092FF0A1092FE0A79
:105A20003ACE0E945D0EDC0112960D911C9101157B
:105A3000110509F4E8CED801ED91FC910190F081B7
:105A4000E02DBE016B5E7F4FC8010995811123CE09
:105A5000F80100851185EBCF181619060CF41BCE42
:105A6000D2CEF1E0FF12BECE69EE7AE104CF1F92F2
:105A70000F920FB60F9211242F933F938F939F9302
:105A8000AF93BF938091650290916602A0916702E7
:105A9000B09168023091640223E0230F2D3758F54E
:105AA0000196A11DB11D209364028093650290931D
:105AB0006602A0936702B093680280916902909198
:105AC0006A02A0916B02B0916C020196A11DB11DFA
:105AD0008093690290936A02A0936B02B0936C0268
